{
  "_format": "hh-sol-artifact-1",
  "contractName": "Verifier_register_sha512_sha512_sha512_rsa_65537_4096",
  "sourceName": "contracts/verifiers/register/Verifier_register_sha512_sha512_sha512_rsa_65537_4096.sol",
  "abi": [
    {
      "inputs": [
        {
          "internalType": "uint256[2]",
          "name": "_pA",
          "type": "uint256[2]"
        },
        {
          "internalType": "uint256[2][2]",
          "name": "_pB",
          "type": "uint256[2][2]"
        },
        {
          "internalType": "uint256[2]",
          "name": "_pC",
          "type": "uint256[2]"
        },
        {
          "internalType": "uint256[3]",
          "name": "_pubSignals",
          "type": "uint256[3]"
        }
      ],
      "name": "verifyProof",
      "outputs": [
        {
          "internalType": "bool",
          "name": "",
          "type": "bool"
        }
      ],
      "stateMutability": "view",
      "type": "function"
    }
  ],
  "bytecode": "0x6080604052348015600f57600080fd5b506105ef8061001f6000396000f3fe608060405234801561001057600080fd5b506004361061002b5760003560e01c806311479fea14610030575b600080fd5b61004361003e36600461057b565b610057565b604051901515815260200160405180910390f35b6000610519565b7f30644e72e131a029b85045b68181585d2833e84879b9709143e1f593f0000001811061008f576000805260206000f35b50565b600060405183815284602082015285604082015260408160608360076107d05a03fa9150816100c5576000805260206000f35b825160408201526020830151606082015260408360808360066107d05a03fa915050806100f6576000805260206000f35b5050505050565b7f02b6ff5c53225f9138eb3e4503820ff870499f763d5a3eaf5e6a6886eb5a22a885527f076566d2194b1d1e90160f9aea37361aac588a601dcabde9f58150c45ed2d47560208601526000608086018661019a87357f065b24205f76f7e6ef9495e2f71684235105949526865ec4143e012c61463a7d7f294f6a749c853cbc4dc7c708adc370a1944a4db73076d645f69210bbe613eaa684610092565b6101e960208801357e24352f894a5d472fc78280193c3e2568357630e33ab37920d1f3d9154b738e7f0bd79983061c67a608ccfbd7ecc969bef401adea58b3f8dabb543e0b8ad13ce084610092565b61023960408801357f0509ecb72f4539d7c1e4c667adb90157c4912ea7ac868364b5c4f082d31d4dab7f22036fdc307fb533036ef84a1f063b5287fd2ae25468e1540fe7be6dfc54997784610092565b50823581527f30644e72e131a029b85045b68181585d97816a916871ca8d3c208c16d87cfd4760208401357f30644e72e131a029b85045b68181585d97816a916871ca8d3c208c16d87cfd4703066020820152833560408201526020840135606082015260408401356080820152606084013560a08201527f2d4d9aa7e302d9df41749d5507949d05dbea33fbb16c643b22f599a2be6df2e260c08201527f14bedd503c37ceb061d8ec60209fe345ce89830a19230301f076caff004d192660e08201527f0967032fcbf776d1afc985f88877f182d38480a653f2decaa9794cbc3bf3060c6101008201527f0e187847ad4c798374d0d6732bf501847dd68bc0e071241e0213bc7fc13db7ab6101208201527f304cfbd1e08a704a99f5e847d93f8c3caafddec46b7a0d379da69a4d112346a76101408201527f1739c1b1a457a8c7313123d24d2f9192f896b7c63eea05a9d57f06547ad0cec8610160820152600087015161018082015260206000018701516101a08201527f198e9393920d483a7260bfb731fb5d25f1aa493335a9e71297e485b7aef312c26101c08201527f1800deef121f1e76426a00665e5c4479674322d4f75edadd46debd5cd992f6ed6101e08201527f090689d0585ff075ec9e99ad690c3395bc4b313370b38ef355acdadcd122975b6102008201527f12c85ea5db8c6deb4aab71808dcb408fe3d1e7690c43d37b4ce6cc0166fa7daa610220820152843561024082015260208501356102608201527f20ad091e168d11dee22c8bb1ac4ec797bf19455fa74b3fa1c2c4cf6fe16312666102808201527f0c9665d8ee8d55019f3048299b7a6804ab64bad00c35762b0ae32a6a75c34ae76102a08201527f0bb9a5b5b80da2322ba8a8d023a30d06f101e2c5fd684717c87bea5c0f9a23a76102c08201527f1997b46a41c6d81549c2dd493b411e26e70452f473211b823663c5c54ab274096102e08201526020816103008360086107d05a03fa9051169695505050505050565b6040516103808101604052610531600084013561005e565b61053e602084013561005e565b61054b604084013561005e565b610558818486888a6100fd565b90508060005260206000f35b806040810183101561057557600080fd5b92915050565b600080600080610160858703121561059257600080fd5b61059c8686610564565b935060c08501868111156105af57600080fd5b6040860193506105bf8782610564565b92505085610160860111156105d357600080fd5b5091949093509091610100019056fea164736f6c634300081c000a",
  "linkReferences": {},
  "deployedLinkReferences": {}
}