{
  "_format": "hh-sol-artifact-1",
  "contractName": "Verifier_vc_and_disclose",
  "sourceName": "contracts/verifiers/disclose/Verifier_vc_and_disclose.sol",
  "abi": [
    {
      "inputs": [
        {
          "internalType": "uint256[2]",
          "name": "_pA",
          "type": "uint256[2]"
        },
        {
          "internalType": "uint256[2][2]",
          "name": "_pB",
          "type": "uint256[2][2]"
        },
        {
          "internalType": "uint256[2]",
          "name": "_pC",
          "type": "uint256[2]"
        },
        {
          "internalType": "uint256[21]",
          "name": "_pubSignals",
          "type": "uint256[21]"
        }
      ],
      "name": "verifyProof",
      "outputs": [
        {
          "internalType": "bool",
          "name": "",
          "type": "bool"
        }
      ],
      "stateMutability": "view",
      "type": "function"
    }
  ],
  "bytecode": "0x6080604052348015600f57600080fd5b50610c938061001f6000396000f3fe608060405234801561001057600080fd5b506004361061002b5760003560e01c80635debc07e14610030575b600080fd5b61004361003e366004610c1f565b610057565b604051901515815260200160405180910390f35b6000610ac6565b7f30644e72e131a029b85045b68181585d2833e84879b9709143e1f593f0000001811061008f576000805260206000f35b50565b600060405183815284602082015285604082015260408160608360076107d05a03fa9150816100c5576000805260206000f35b825160408201526020830151606082015260408360808360066107d05a03fa915050806100f6576000805260206000f35b5050505050565b7f0cd6e24705556a9d3e1c323cdc3eb8c2a1ba14dc003be10a2f2f10309668fe3785527f0a8744e6d5863610669b61493dc176988f90ae28531c5e0e5a882cf1d5ee8a2d60208601526000608086018661019a87357f16c42f2c5311f1cc3385214ea63a7b6095eed280a4699f74c5353d1b1347c6817f24d6942dca4b13e5734c8d0323c65ac750d40e4fb92fcbc64e72caf121a33dd884610092565b6101ea60208801357f2b6ee4e98e8c1877b61f03db0005bfc45f8ec108835c6e0117dedb1da607925f7f10eb758187f5a2a6570873295cd56ff8e39cab15895aa5f0fa69ecf282447c5484610092565b61023a60408801357f0a8240fd49c48cf5618e8a266ea8c1e893d82de3d5eabf184d27388a86685fec7f173d383eb3608fab096c50a1c560b4d93fec84c0374f21fd7e0e010d8b6a498584610092565b61028a60608801357f103333c820220a91422b658945d0a3b8a4a465d91d925a31c7c7ae739502b9637f278e493dba5c3948ab59a6a6c095a5d02ba00a7ee340731e6c2a544c6644eb4584610092565b6102da60808801357f2a5ef125f302f11cbe328177a397e1fded41fd88e6bbb2636771c1e5e124f5117f2ad89b0b34868bf71f7157a0bcd2e9de912b56496f5ee9f2c8cd3be301769de084610092565b61032a60a08801357f25b436887b02c2aed3cd658bf335c217cd5db57c87fb1f7ef8b20a20f4f7ed757f140396ac600a2395a8baa02d3c0b7da6992592b4ef278cae5f0e763002da552884610092565b61037a60c08801357f22237dc91333e70a16cfd77ea56cfa54ab5ddb236af0d9b71c744a5fe5153fd77f2f53cf9e956c02c4058bf9b185f383516b369329ee6495448551cafdd9f2c89684610092565b6103ca60e08801357f19a67ca47d739eaf1fe7dceb0763828dd260bfe2eb6e81dadcb1c9c9f9a2ffa57f203e9c67677bbecfb8c5ae6c33045ea63699eab2e176ea33a7ebe90ecc9fe88784610092565b61041b6101008801357f26d4ecb110f8f96dd62bdf4022ab81b7b92fa37e049842bb2e038d6cfc357d017f290c77d6892ee65bbdd565b0011d9f8e630e31b93ead5882bd2deb4522e7bd1a84610092565b61046c6101208801357f1644b7ab3a2ecfc4bff7363001937571512e737a5f6a4ccd1900ede3102be8a47f26dd0031e3c3af5434fbcea2390cd6d270e539a70ca946635c206c081c184cbc84610092565b6104bd6101408801357f104eb056b29770997fe0ca99f504c50909d24f635d3caf680d750152934364e37f18b567617b40d3a8ce0ae31cdda68e4510e1696f488d617510feecd38f05f44084610092565b61050e6101608801357f06d9846130994668a122986407622e0af92203dfe92141af417ebb8cc4e0d7537f16d55f73d13c89dfc6e79ab35ed15222d22a3cb60a8a53da03d589f466d71f2184610092565b61055f6101808801357f2d1565d66d326eb3da585c400b15c6b410f5fd543a1da2fd6477f9c54b14bdda7f0e99bc5d2174932ed355955d2867bae02578b5ea15425c0d1adb6319b72c9ff384610092565b6105b06101a08801357f1bf2e4ce2086c23b3c0aab70dc67a5d00682a6d678fc9610c9242a9726168c887f176073f6110474e4e592d8bf5b4a12415c9bee69e0dfd3a6ee4d760de33b643384610092565b6106016101c08801357f2ea1ce03c30279a924e74d3e4a85640d9811b105836427129f95df75bcf4b1f47f11c28357b45d41a3fc40d68d0726697693a0ec9139c160c078853297b54c4d8684610092565b6106526101e08801357f1ccb5fc0b61aadc3d791a4259e068768753427bdf8447f1527d6d5c335485a2b7f0f5d342052e1c9fb380f636e6e62ff2b086f7df20487845f13fd8a8fa270aeff84610092565b6106a36102008801357f2df295a89135c604213f3b817551b2ba5d0947e46e1840933a936b563ff9f3577f0c98357c14558d97c705bd6ebddc4bb0e8fcfabab4d03b023f8aec372d0ee49d84610092565b6106f46102208801357f2c25b338fc622cba45a3d866b65ffeb885aff8187c9d0e1d590b8a0d5ec0b35d7f2f84b8ce59ea986456de85de8de6d3af440f96f54e5a9743246a5cf3967f732e84610092565b6107456102408801357f0d49175bedf4f57f8b9877421aec2bdca5e2a213320c5119efe91697ceeaf9fc7f0c2fdf40ea806ca89bc1b8c2dffe3a82153f9dd80a5c36a4a12cc39d549116ba84610092565b6107966102608801357f2a6d541d84031737e5bc17d65c54042654e1a52f2e0660ff93c05ef0960f7e3a7f1956641ea89cacb57b09c6dedea44d6c0762ee674531eed1afcf4d061f34f87184610092565b6107e76102808801357f2e88f52a05b281e7c20fc3eb391b65e8dbafc0e4acde9d57d2296537e544fc307f02ef863174e665e4e3883fe2c0fb3cb03cfe4de1f3edff01745fc573720d972984610092565b50823581527f30644e72e131a029b85045b68181585d97816a916871ca8d3c208c16d87cfd4760208401357f30644e72e131a029b85045b68181585d97816a916871ca8d3c208c16d87cfd4703066020820152833560408201526020840135606082015260408401356080820152606084013560a08201527f245229d9b076b3c0e8a4d70bde8c1cccffa08a9fae7557b165b3b0dbd653e2c760c08201527f253ec85988dbb84e46e94b5efa3373b47a000b4ac6c86b2d4b798d274a18230260e08201527f07090a82e8fabbd39299be24705b92cf208ee8b3487f6f2b39ff27978a29a1db6101008201527f2424bcc1f60a5472685fd50705b2809626e170120acaf441e133a2bd5e61d2446101208201527f0ae1135cffdaf227c5dc266740607aa930bc3bd92ddc2b135086d9da2dfd3e2a6101408201527f2b86859fd3d55c9d150fb3f0aeba798826493dd73d357ab0f9fdaced9fc81829610160820152600087015161018082015260206000018701516101a08201527f198e9393920d483a7260bfb731fb5d25f1aa493335a9e71297e485b7aef312c26101c08201527f1800deef121f1e76426a00665e5c4479674322d4f75edadd46debd5cd992f6ed6101e08201527f090689d0585ff075ec9e99ad690c3395bc4b313370b38ef355acdadcd122975b6102008201527f12c85ea5db8c6deb4aab71808dcb408fe3d1e7690c43d37b4ce6cc0166fa7daa610220820152843561024082015260208501356102608201527f1fab77405d4723b2c1df89245009178b03c9cd1edbca17a7caf84f502bb69e436102808201527f2f7fc0183fd0eb418b1b80f2f5b899937c3ba94f76393d0013be84611e0225976102a08201527f24a97105ee2ae54a1ff850d6368dfdb09ee3ce4c2e80e8aa1bba726d7a4c8a766102c08201527ee44bc7192f8f5740e0ad9f1783da9453f213c85c0d27f97e53774e7c9b8d886102e08201526020816103008360086107d05a03fa9051169695505050505050565b6040516103808101604052610ade600084013561005e565b610aeb602084013561005e565b610af8604084013561005e565b610b05606084013561005e565b610b12608084013561005e565b610b1f60a084013561005e565b610b2c60c084013561005e565b610b3960e084013561005e565b610b4761010084013561005e565b610b5561012084013561005e565b610b6361014084013561005e565b610b7161016084013561005e565b610b7f61018084013561005e565b610b8d6101a084013561005e565b610b9b6101c084013561005e565b610ba96101e084013561005e565b610bb761020084013561005e565b610bc561022084013561005e565b610bd361024084013561005e565b610be161026084013561005e565b610bef61028084013561005e565b610bfc818486888a6100fd565b90508060005260206000f35b8060408101831015610c1957600080fd5b92915050565b6000806000806103a08587031215610c3657600080fd5b610c408686610c08565b935060c0850186811115610c5357600080fd5b604086019350610c638782610c08565b925050856103a086011115610c7757600080fd5b5091949093509091610100019056fea164736f6c634300081c000a",
  "linkReferences": {},
  "deployedLinkReferences": {}
}