{
  "_format": "hh-sol-artifact-1",
  "contractName": "Verifier_register_sha256_sha256_sha256_rsapss_3_32_2048",
  "sourceName": "contracts/verifiers/register/Verifier_register_sha256_sha256_sha256_rsapss_3_32_2048.sol",
  "abi": [
    {
      "inputs": [
        {
          "internalType": "uint256[2]",
          "name": "_pA",
          "type": "uint256[2]"
        },
        {
          "internalType": "uint256[2][2]",
          "name": "_pB",
          "type": "uint256[2][2]"
        },
        {
          "internalType": "uint256[2]",
          "name": "_pC",
          "type": "uint256[2]"
        },
        {
          "internalType": "uint256[3]",
          "name": "_pubSignals",
          "type": "uint256[3]"
        }
      ],
      "name": "verifyProof",
      "outputs": [
        {
          "internalType": "bool",
          "name": "",
          "type": "bool"
        }
      ],
      "stateMutability": "view",
      "type": "function"
    }
  ],
  "bytecode": "0x6080604052348015600f57600080fd5b506105ef8061001f6000396000f3fe608060405234801561001057600080fd5b506004361061002b5760003560e01c806311479fea14610030575b600080fd5b61004361003e36600461057b565b610057565b604051901515815260200160405180910390f35b6000610519565b7f30644e72e131a029b85045b68181585d2833e84879b9709143e1f593f0000001811061008f576000805260206000f35b50565b600060405183815284602082015285604082015260408160608360076107d05a03fa9150816100c5576000805260206000f35b825160408201526020830151606082015260408360808360066107d05a03fa915050806100f6576000805260206000f35b5050505050565b7f01e953e0c12c99497f92b940d94eda85d0732db4454e156626bfbb0531fa2e4885527f2196d516e7a426b6733a11f1cd9bfaf9b86580b616f19908f815e8e6ea24ffda60208601526000608086018661019987357f11bdc512fe941044333fe69e38f41f09cc1c4bb7a12d3a1bec075f06d3a6cc0a7e20a40c1701d58003b81c41c26e0f2b875b759e37ec1513bcb2701899f073a584610092565b6101e960208801357f03a0a6c1b31f88105943915cd072bdb092919baba15cd8adb8b766b79a1a3d1a7f0d0782787890894da6088a2beb79b2bd08b4b760b01b6a549868c249a108f29684610092565b61023960408801357f1bb590a16b1873e12f075f937b10c6a8dd3828783a5b5aade035568ec881cf9a7f23a5eef1c7a148f2e69059e5b164e1cd206ae090c3a49ceac12b7df7dd4be9d284610092565b50823581527f30644e72e131a029b85045b68181585d97816a916871ca8d3c208c16d87cfd4760208401357f30644e72e131a029b85045b68181585d97816a916871ca8d3c208c16d87cfd4703066020820152833560408201526020840135606082015260408401356080820152606084013560a08201527f2d4d9aa7e302d9df41749d5507949d05dbea33fbb16c643b22f599a2be6df2e260c08201527f14bedd503c37ceb061d8ec60209fe345ce89830a19230301f076caff004d192660e08201527f0967032fcbf776d1afc985f88877f182d38480a653f2decaa9794cbc3bf3060c6101008201527f0e187847ad4c798374d0d6732bf501847dd68bc0e071241e0213bc7fc13db7ab6101208201527f304cfbd1e08a704a99f5e847d93f8c3caafddec46b7a0d379da69a4d112346a76101408201527f1739c1b1a457a8c7313123d24d2f9192f896b7c63eea05a9d57f06547ad0cec8610160820152600087015161018082015260206000018701516101a08201527f198e9393920d483a7260bfb731fb5d25f1aa493335a9e71297e485b7aef312c26101c08201527f1800deef121f1e76426a00665e5c4479674322d4f75edadd46debd5cd992f6ed6101e08201527f090689d0585ff075ec9e99ad690c3395bc4b313370b38ef355acdadcd122975b6102008201527f12c85ea5db8c6deb4aab71808dcb408fe3d1e7690c43d37b4ce6cc0166fa7daa610220820152843561024082015260208501356102608201527f2318669146fd93d42a88368368f2e17f7ebe9a601a6d2f37cb7b9c806060a8f26102808201527f29f72899890e4266d88b0fc58e1083c44d0ad8fc5fe93785448fb5a5d3479ebd6102a08201527f1a3b446da22d97aa46fc48fc1f53252309ad336768d0ac614481afab285d44916102c08201527f304c4c3b16c1779849bf976ddded7a4b43072067ab6cd2581f10516aa4c2a7e06102e08201526020816103008360086107d05a03fa9051169695505050505050565b6040516103808101604052610531600084013561005e565b61053e602084013561005e565b61054b604084013561005e565b610558818486888a6100fd565b90508060005260206000f35b806040810183101561057557600080fd5b92915050565b600080600080610160858703121561059257600080fd5b61059c8686610564565b935060c08501868111156105af57600080fd5b6040860193506105bf8782610564565b92505085610160860111156105d357600080fd5b5091949093509091610100019056fea164736f6c634300081c000a",
  "linkReferences": {},
  "deployedLinkReferences": {}
}