{
  "_format": "hh-sol-artifact-1",
  "contractName": "IdentityVerificationHubImplV1",
  "sourceName": "contracts/IdentityVerificationHubImplV1.sol",
  "abi": [
    {
      "inputs": [],
      "stateMutability": "nonpayable",
      "type": "constructor"
    },
    {
      "inputs": [
        {
          "internalType": "address",
          "name": "target",
          "type": "address"
        }
      ],
      "name": "AddressEmptyCode",
      "type": "error"
    },
    {
      "inputs": [],
      "name": "CURRENT_DATE_NOT_IN_VALID_RANGE",
      "type": "error"
    },
    {
      "inputs": [
        {
          "internalType": "address",
          "name": "implementation",
          "type": "address"
        }
      ],
      "name": "ERC1967InvalidImplementation",
      "type": "error"
    },
    {
      "inputs": [],
      "name": "ERC1967NonPayable",
      "type": "error"
    },
    {
      "inputs": [],
      "name": "FailedCall",
      "type": "error"
    },
    {
      "inputs": [],
      "name": "INSUFFICIENT_CHARCODE_LEN",
      "type": "error"
    },
    {
      "inputs": [],
      "name": "INVALID_COMMITMENT_ROOT",
      "type": "error"
    },
    {
      "inputs": [],
      "name": "INVALID_CSCA_ROOT",
      "type": "error"
    },
    {
      "inputs": [],
      "name": "INVALID_DSC_PROOF",
      "type": "error"
    },
    {
      "inputs": [],
      "name": "INVALID_FORBIDDEN_COUNTRIES",
      "type": "error"
    },
    {
      "inputs": [],
      "name": "INVALID_OFAC",
      "type": "error"
    },
    {
      "inputs": [],
      "name": "INVALID_OFAC_ROOT",
      "type": "error"
    },
    {
      "inputs": [],
      "name": "INVALID_OLDER_THAN",
      "type": "error"
    },
    {
      "inputs": [],
      "name": "INVALID_REGISTER_PROOF",
      "type": "error"
    },
    {
      "inputs": [],
      "name": "INVALID_REVEALED_DATA_TYPE",
      "type": "error"
    },
    {
      "inputs": [],
      "name": "INVALID_VC_AND_DISCLOSE_PROOF",
      "type": "error"
    },
    {
      "inputs": [],
      "name": "InvalidAsciiCode",
      "type": "error"
    },
    {
      "inputs": [],
      "name": "InvalidDateDigit",
      "type": "error"
    },
    {
      "inputs": [],
      "name": "InvalidDateLength",
      "type": "error"
    },
    {
      "inputs": [],
      "name": "InvalidDayRange",
      "type": "error"
    },
    {
      "inputs": [],
      "name": "InvalidFieldElement",
      "type": "error"
    },
    {
      "inputs": [],
      "name": "InvalidInitialization",
      "type": "error"
    },
    {
      "inputs": [],
      "name": "InvalidMonthRange",
      "type": "error"
    },
    {
      "inputs": [],
      "name": "InvalidYearRange",
      "type": "error"
    },
    {
      "inputs": [],
      "name": "LENGTH_MISMATCH",
      "type": "error"
    },
    {
      "inputs": [],
      "name": "NO_VERIFIER_SET",
      "type": "error"
    },
    {
      "inputs": [],
      "name": "NotInitializing",
      "type": "error"
    },
    {
      "inputs": [
        {
          "internalType": "address",
          "name": "owner",
          "type": "address"
        }
      ],
      "name": "OwnableInvalidOwner",
      "type": "error"
    },
    {
      "inputs": [
        {
          "internalType": "address",
          "name": "account",
          "type": "address"
        }
      ],
      "name": "OwnableUnauthorizedAccount",
      "type": "error"
    },
    {
      "inputs": [],
      "name": "UUPSUnauthorizedCallContext",
      "type": "error"
    },
    {
      "inputs": [
        {
          "internalType": "bytes32",
          "name": "slot",
          "type": "bytes32"
        }
      ],
      "name": "UUPSUnsupportedProxiableUUID",
      "type": "error"
    },
    {
      "anonymous": false,
      "inputs": [
        {
          "indexed": false,
          "internalType": "uint256",
          "name": "typeId",
          "type": "uint256"
        },
        {
          "indexed": false,
          "internalType": "address",
          "name": "verifier",
          "type": "address"
        }
      ],
      "name": "DscCircuitVerifierUpdated",
      "type": "event"
    },
    {
      "anonymous": false,
      "inputs": [
        {
          "indexed": false,
          "internalType": "address",
          "name": "registry",
          "type": "address"
        },
        {
          "indexed": false,
          "internalType": "address",
          "name": "vcAndDiscloseCircuitVerifier",
          "type": "address"
        },
        {
          "indexed": false,
          "internalType": "uint256[]",
          "name": "registerCircuitVerifierIds",
          "type": "uint256[]"
        },
        {
          "indexed": false,
          "internalType": "address[]",
          "name": "registerCircuitVerifiers",
          "type": "address[]"
        },
        {
          "indexed": false,
          "internalType": "uint256[]",
          "name": "dscCircuitVerifierIds",
          "type": "uint256[]"
        },
        {
          "indexed": false,
          "internalType": "address[]",
          "name": "dscCircuitVerifiers",
          "type": "address[]"
        }
      ],
      "name": "HubInitialized",
      "type": "event"
    },
    {
      "anonymous": false,
      "inputs": [
        {
          "indexed": false,
          "internalType": "uint64",
          "name": "version",
          "type": "uint64"
        }
      ],
      "name": "Initialized",
      "type": "event"
    },
    {
      "anonymous": false,
      "inputs": [
        {
          "indexed": true,
          "internalType": "address",
          "name": "previousOwner",
          "type": "address"
        },
        {
          "indexed": true,
          "internalType": "address",
          "name": "newOwner",
          "type": "address"
        }
      ],
      "name": "OwnershipTransferStarted",
      "type": "event"
    },
    {
      "anonymous": false,
      "inputs": [
        {
          "indexed": true,
          "internalType": "address",
          "name": "previousOwner",
          "type": "address"
        },
        {
          "indexed": true,
          "internalType": "address",
          "name": "newOwner",
          "type": "address"
        }
      ],
      "name": "OwnershipTransferred",
      "type": "event"
    },
    {
      "anonymous": false,
      "inputs": [
        {
          "indexed": false,
          "internalType": "uint256",
          "name": "typeId",
          "type": "uint256"
        },
        {
          "indexed": false,
          "internalType": "address",
          "name": "verifier",
          "type": "address"
        }
      ],
      "name": "RegisterCircuitVerifierUpdated",
      "type": "event"
    },
    {
      "anonymous": false,
      "inputs": [
        {
          "indexed": false,
          "internalType": "address",
          "name": "registry",
          "type": "address"
        }
      ],
      "name": "RegistryUpdated",
      "type": "event"
    },
    {
      "anonymous": false,
      "inputs": [
        {
          "indexed": true,
          "internalType": "address",
          "name": "implementation",
          "type": "address"
        }
      ],
      "name": "Upgraded",
      "type": "event"
    },
    {
      "anonymous": false,
      "inputs": [
        {
          "indexed": false,
          "internalType": "address",
          "name": "vcAndDiscloseCircuitVerifier",
          "type": "address"
        }
      ],
      "name": "VcAndDiscloseCircuitUpdated",
      "type": "event"
    },
    {
      "inputs": [],
      "name": "UPGRADE_INTERFACE_VERSION",
      "outputs": [
        {
          "internalType": "string",
          "name": "",
          "type": "string"
        }
      ],
      "stateMutability": "view",
      "type": "function"
    },
    {
      "inputs": [],
      "name": "acceptOwnership",
      "outputs": [],
      "stateMutability": "nonpayable",
      "type": "function"
    },
    {
      "inputs": [
        {
          "internalType": "uint256[]",
          "name": "typeIds",
          "type": "uint256[]"
        },
        {
          "internalType": "address[]",
          "name": "verifierAddresses",
          "type": "address[]"
        }
      ],
      "name": "batchUpdateDscCircuitVerifiers",
      "outputs": [],
      "stateMutability": "nonpayable",
      "type": "function"
    },
    {
      "inputs": [
        {
          "internalType": "uint256[]",
          "name": "typeIds",
          "type": "uint256[]"
        },
        {
          "internalType": "address[]",
          "name": "verifierAddresses",
          "type": "address[]"
        }
      ],
      "name": "batchUpdateRegisterCircuitVerifiers",
      "outputs": [],
      "stateMutability": "nonpayable",
      "type": "function"
    },
    {
      "inputs": [
        {
          "internalType": "uint256",
          "name": "forbiddenCountriesListPacked",
          "type": "uint256"
        }
      ],
      "name": "getReadableForbiddenCountries",
      "outputs": [
        {
          "internalType": "string[10]",
          "name": "",
          "type": "string[10]"
        }
      ],
      "stateMutability": "view",
      "type": "function"
    },
    {
      "inputs": [
        {
          "internalType": "uint256[3]",
          "name": "revealedDataPacked",
          "type": "uint256[3]"
        },
        {
          "internalType": "enum IIdentityVerificationHubV1.RevealedDataType[]",
          "name": "types",
          "type": "uint8[]"
        }
      ],
      "name": "getReadableRevealedData",
      "outputs": [
        {
          "components": [
            {
              "internalType": "string",
              "name": "issuingState",
              "type": "string"
            },
            {
              "internalType": "string[]",
              "name": "name",
              "type": "string[]"
            },
            {
              "internalType": "string",
              "name": "passportNumber",
              "type": "string"
            },
            {
              "internalType": "string",
              "name": "nationality",
              "type": "string"
            },
            {
              "internalType": "string",
              "name": "dateOfBirth",
              "type": "string"
            },
            {
              "internalType": "string",
              "name": "gender",
              "type": "string"
            },
            {
              "internalType": "string",
              "name": "expiryDate",
              "type": "string"
            },
            {
              "internalType": "uint256",
              "name": "olderThan",
              "type": "uint256"
            },
            {
              "internalType": "uint256",
              "name": "passportNoOfac",
              "type": "uint256"
            },
            {
              "internalType": "uint256",
              "name": "nameAndDobOfac",
              "type": "uint256"
            },
            {
              "internalType": "uint256",
              "name": "nameAndYobOfac",
              "type": "uint256"
            }
          ],
          "internalType": "struct IIdentityVerificationHubV1.ReadableRevealedData",
          "name": "",
          "type": "tuple"
        }
      ],
      "stateMutability": "view",
      "type": "function"
    },
    {
      "inputs": [
        {
          "internalType": "address",
          "name": "registryAddress",
          "type": "address"
        },
        {
          "internalType": "address",
          "name": "vcAndDiscloseCircuitVerifierAddress",
          "type": "address"
        },
        {
          "internalType": "uint256[]",
          "name": "registerCircuitVerifierIds",
          "type": "uint256[]"
        },
        {
          "internalType": "address[]",
          "name": "registerCircuitVerifierAddresses",
          "type": "address[]"
        },
        {
          "internalType": "uint256[]",
          "name": "dscCircuitVerifierIds",
          "type": "uint256[]"
        },
        {
          "internalType": "address[]",
          "name": "dscCircuitVerifierAddresses",
          "type": "address[]"
        }
      ],
      "name": "initialize",
      "outputs": [],
      "stateMutability": "nonpayable",
      "type": "function"
    },
    {
      "inputs": [],
      "name": "owner",
      "outputs": [
        {
          "internalType": "address",
          "name": "",
          "type": "address"
        }
      ],
      "stateMutability": "view",
      "type": "function"
    },
    {
      "inputs": [],
      "name": "pendingOwner",
      "outputs": [
        {
          "internalType": "address",
          "name": "",
          "type": "address"
        }
      ],
      "stateMutability": "view",
      "type": "function"
    },
    {
      "inputs": [],
      "name": "proxiableUUID",
      "outputs": [
        {
          "internalType": "bytes32",
          "name": "",
          "type": "bytes32"
        }
      ],
      "stateMutability": "view",
      "type": "function"
    },
    {
      "inputs": [
        {
          "internalType": "uint256",
          "name": "dscCircuitVerifierId",
          "type": "uint256"
        },
        {
          "components": [
            {
              "internalType": "uint256[2]",
              "name": "a",
              "type": "uint256[2]"
            },
            {
              "internalType": "uint256[2][2]",
              "name": "b",
              "type": "uint256[2][2]"
            },
            {
              "internalType": "uint256[2]",
              "name": "c",
              "type": "uint256[2]"
            },
            {
              "internalType": "uint256[2]",
              "name": "pubSignals",
              "type": "uint256[2]"
            }
          ],
          "internalType": "struct IDscCircuitVerifier.DscCircuitProof",
          "name": "dscCircuitProof",
          "type": "tuple"
        }
      ],
      "name": "registerDscKeyCommitment",
      "outputs": [],
      "stateMutability": "nonpayable",
      "type": "function"
    },
    {
      "inputs": [
        {
          "internalType": "uint256",
          "name": "registerCircuitVerifierId",
          "type": "uint256"
        },
        {
          "components": [
            {
              "internalType": "uint256[2]",
              "name": "a",
              "type": "uint256[2]"
            },
            {
              "internalType": "uint256[2][2]",
              "name": "b",
              "type": "uint256[2][2]"
            },
            {
              "internalType": "uint256[2]",
              "name": "c",
              "type": "uint256[2]"
            },
            {
              "internalType": "uint256[3]",
              "name": "pubSignals",
              "type": "uint256[3]"
            }
          ],
          "internalType": "struct IRegisterCircuitVerifier.RegisterCircuitProof",
          "name": "registerCircuitProof",
          "type": "tuple"
        }
      ],
      "name": "registerPassportCommitment",
      "outputs": [],
      "stateMutability": "nonpayable",
      "type": "function"
    },
    {
      "inputs": [],
      "name": "registry",
      "outputs": [
        {
          "internalType": "address",
          "name": "",
          "type": "address"
        }
      ],
      "stateMutability": "view",
      "type": "function"
    },
    {
      "inputs": [],
      "name": "renounceOwnership",
      "outputs": [],
      "stateMutability": "nonpayable",
      "type": "function"
    },
    {
      "inputs": [
        {
          "internalType": "uint256",
          "name": "typeId",
          "type": "uint256"
        }
      ],
      "name": "sigTypeToDscCircuitVerifiers",
      "outputs": [
        {
          "internalType": "address",
          "name": "",
          "type": "address"
        }
      ],
      "stateMutability": "view",
      "type": "function"
    },
    {
      "inputs": [
        {
          "internalType": "uint256",
          "name": "typeId",
          "type": "uint256"
        }
      ],
      "name": "sigTypeToRegisterCircuitVerifiers",
      "outputs": [
        {
          "internalType": "address",
          "name": "",
          "type": "address"
        }
      ],
      "stateMutability": "view",
      "type": "function"
    },
    {
      "inputs": [
        {
          "internalType": "address",
          "name": "newOwner",
          "type": "address"
        }
      ],
      "name": "transferOwnership",
      "outputs": [],
      "stateMutability": "nonpayable",
      "type": "function"
    },
    {
      "inputs": [
        {
          "internalType": "uint256",
          "name": "typeId",
          "type": "uint256"
        },
        {
          "internalType": "address",
          "name": "verifierAddress",
          "type": "address"
        }
      ],
      "name": "updateDscVerifier",
      "outputs": [],
      "stateMutability": "nonpayable",
      "type": "function"
    },
    {
      "inputs": [
        {
          "internalType": "uint256",
          "name": "typeId",
          "type": "uint256"
        },
        {
          "internalType": "address",
          "name": "verifierAddress",
          "type": "address"
        }
      ],
      "name": "updateRegisterCircuitVerifier",
      "outputs": [],
      "stateMutability": "nonpayable",
      "type": "function"
    },
    {
      "inputs": [
        {
          "internalType": "address",
          "name": "registryAddress",
          "type": "address"
        }
      ],
      "name": "updateRegistry",
      "outputs": [],
      "stateMutability": "nonpayable",
      "type": "function"
    },
    {
      "inputs": [
        {
          "internalType": "address",
          "name": "vcAndDiscloseCircuitVerifierAddress",
          "type": "address"
        }
      ],
      "name": "updateVcAndDiscloseCircuit",
      "outputs": [],
      "stateMutability": "nonpayable",
      "type": "function"
    },
    {
      "inputs": [
        {
          "internalType": "address",
          "name": "newImplementation",
          "type": "address"
        },
        {
          "internalType": "bytes",
          "name": "data",
          "type": "bytes"
        }
      ],
      "name": "upgradeToAndCall",
      "outputs": [],
      "stateMutability": "payable",
      "type": "function"
    },
    {
      "inputs": [],
      "name": "vcAndDiscloseCircuitVerifier",
      "outputs": [
        {
          "internalType": "address",
          "name": "",
          "type": "address"
        }
      ],
      "stateMutability": "view",
      "type": "function"
    },
    {
      "inputs": [
        {
          "components": [
            {
              "internalType": "bool",
              "name": "olderThanEnabled",
              "type": "bool"
            },
            {
              "internalType": "uint256",
              "name": "olderThan",
              "type": "uint256"
            },
            {
              "internalType": "bool",
              "name": "forbiddenCountriesEnabled",
              "type": "bool"
            },
            {
              "internalType": "uint256",
              "name": "forbiddenCountriesListPacked",
              "type": "uint256"
            },
            {
              "internalType": "bool[3]",
              "name": "ofacEnabled",
              "type": "bool[3]"
            },
            {
              "components": [
                {
                  "internalType": "uint256[2]",
                  "name": "a",
                  "type": "uint256[2]"
                },
                {
                  "internalType": "uint256[2][2]",
                  "name": "b",
                  "type": "uint256[2][2]"
                },
                {
                  "internalType": "uint256[2]",
                  "name": "c",
                  "type": "uint256[2]"
                },
                {
                  "internalType": "uint256[18]",
                  "name": "pubSignals",
                  "type": "uint256[18]"
                }
              ],
              "internalType": "struct IVcAndDiscloseCircuitVerifier.VcAndDiscloseProof",
              "name": "vcAndDiscloseProof",
              "type": "tuple"
            }
          ],
          "internalType": "struct IIdentityVerificationHubV1.VcAndDiscloseHubProof",
          "name": "proof",
          "type": "tuple"
        }
      ],
      "name": "verifyVcAndDisclose",
      "outputs": [
        {
          "components": [
            {
              "internalType": "uint256",
              "name": "attestationId",
              "type": "uint256"
            },
            {
              "internalType": "uint256",
              "name": "scope",
              "type": "uint256"
            },
            {
              "internalType": "uint256",
              "name": "userIdentifier",
              "type": "uint256"
            },
            {
              "internalType": "uint256",
              "name": "nullifier",
              "type": "uint256"
            },
            {
              "internalType": "uint256",
              "name": "identityCommitmentRoot",
              "type": "uint256"
            },
            {
              "internalType": "uint256[3]",
              "name": "revealedDataPacked",
              "type": "uint256[3]"
            },
            {
              "internalType": "uint256",
              "name": "forbiddenCountriesListPacked",
              "type": "uint256"
            }
          ],
          "internalType": "struct IIdentityVerificationHubV1.VcAndDiscloseVerificationResult",
          "name": "",
          "type": "tuple"
        }
      ],
      "stateMutability": "view",
      "type": "function"
    }
  ],
  "bytecode": "0x60a06040523060805234801561001457600080fd5b5061001d610022565b6100d4565b7ff0c57e16840df040f15088dc2f81fe391c3923bec73e23a9662efc9c229c6a00805468010000000000000000900460ff16156100725760405163f92ee8a960e01b815260040160405180910390fd5b80546001600160401b03908116146100d15780546001600160401b0319166001600160401b0390811782556040519081527fc7f505b2f371ae2175ee4913f4499e1f2633a7b5936321eed1cdaeb6115181d29060200160405180910390a15b50565b608051613ecb6100fd600039600081816111720152818161119b0152611c900152613ecb6000f3fe60806040526004361061014b5760003560e01c80637798200a116100b6578063e42208af1161006f578063e42208af1461039f578063e6db96b7146103bf578063f015f579146103df578063f2fde38b146103ff578063f559df131461041f578063f6c9f6291461043f57600080fd5b80637798200a146102f857806379ba50971461030d5780637b103999146103225780638da5cb5b14610337578063ad3cb1cc1461034c578063e30c39781461038a57600080fd5b80632ee85c3e116101085780632ee85c3e1461023557806330aec59e1461026d5780633d098d8b1461028d5780634f1ef286146102ad57806352d1902d146102c0578063715018a6146102e357600080fd5b806304fcccd1146101505780630ae1b2c01461017257806318725854146101925780631a5da6c8146101c8578063253f254b146101e85780632b26ef5014610208575b600080fd5b34801561015c57600080fd5b5061017061016b3660046130cf565b61046c565b005b34801561017e57600080fd5b5061017061018d36600461316c565b6104fb565b34801561019e57600080fd5b506101b26101ad366004613244565b610560565b6040516101bf919061330c565b60405180910390f35b3480156101d457600080fd5b506101706101e336600461316c565b610630565b3480156101f457600080fd5b50610170610203366004613380565b61068e565b34801561021457600080fd5b506102286102233660046133cf565b610705565b6040516101bf919061352a565b34801561024157600080fd5b50610255610250366004613637565b610959565b6040516001600160a01b0390911681526020016101bf565b34801561027957600080fd5b50610170610288366004613380565b61097f565b34801561029957600080fd5b506101706102a8366004613650565b6109ee565b6101706102bb3660046136c6565b610a38565b3480156102cc57600080fd5b506102d5610a57565b6040519081526020016101bf565b3480156102ef57600080fd5b50610170610a74565b34801561030457600080fd5b50610255610a88565b34801561031957600080fd5b50610170610aa2565b34801561032e57600080fd5b50610255610aef565b34801561034357600080fd5b50610255610b09565b34801561035857600080fd5b5061037d604051806040016040528060058152602001640352e302e360dc1b81525081565b6040516101bf919061376f565b34801561039657600080fd5b50610255610b3e565b3480156103ab57600080fd5b506102556103ba366004613637565b610b67565b3480156103cb57600080fd5b506101706103da366004613845565b610b8d565b3480156103eb57600080fd5b506101706103fa36600461396c565b610e4e565b34801561040b57600080fd5b5061017061041a36600461316c565b610f8f565b34801561042b57600080fd5b5061017061043a36600461396c565b611014565b34801561044b57600080fd5b5061045f61045a366004613637565b61114e565b6040516101bf91906139db565b610474611167565b61047e828261120c565b60325460608201518051602090910151604051634d42ea0560e11b815260016004820152602481019290925260448201526001600160a01b0390911690639a85d40a906064015b600060405180830381600087803b1580156104df57600080fd5b505af11580156104f3573d6000803e3d6000fd5b505050505050565b610503611167565b61050b61137c565b603380546001600160a01b0319166001600160a01b0383169081179091556040519081527f668ec257b00a7e1390c2dc2aed8dc1530b91cd9e36167e4991d705cd3d2fe65e906020015b60405180910390a150565b610568612e3b565b610570611167565b610578612e3b565b610581836113ae565b608082015260005b60038110156105de5760a0840151606001516105a6826000613a4c565b601281106105b6576105b6613a20565b60200201518260a0015182600381106105d1576105d1613a20565b6020020152600101610589565b5060a0838101805160609081015181015160c08501528151810151608001518482015281518101519092015183528051820151610220015160408401525101516102000151602082015290505b919050565b610638611167565b61064061137c565b603280546001600160a01b0319166001600160a01b0383169081179091556040519081527fd6ceddf6d2a22f21c7c81675c518004eff43bc5c8a6fc32a0b748e69d58671cd90602001610555565b610696611167565b61069e61137c565b60008281526034602090815260409182902080546001600160a01b0319166001600160a01b0385169081179091558251858152918201527f2bdbcbf49383457c270bf05734cc8d74acb8a5788f0dc6384a715680f6a4dbcf91015b60405180910390a15050565b61070d612e7e565b610715611167565b6000610720846117cf565b905061072a612e7e565b60005b845181101561094e57600085828151811061074a5761074a613a20565b602002602001015190506000600a81111561076757610767613a5f565b81600a81111561077957610779613a5f565b0361078e5761078784611928565b8352610945565b600181600a8111156107a2576107a2613a5f565b036107ba576107b084611937565b6020840152610945565b600281600a8111156107ce576107ce613a5f565b036107e6576107dc8461194e565b6040840152610945565b600381600a8111156107fa576107fa613a5f565b03610812576108088461195d565b6060840152610945565b600481600a81111561082657610826613a5f565b0361083e576108348461196c565b6080840152610945565b600581600a81111561085257610852613a5f565b0361086a5761086084611983565b60a0840152610945565b600681600a81111561087e5761087e613a5f565b036108965761088c84611991565b60c0840152610945565b600781600a8111156108aa576108aa613a5f565b036108c2576108b8846119a3565b60e0840152610945565b600881600a8111156108d6576108d6613a5f565b036108ef576108e4846119fd565b610100840152610945565b600981600a81111561090357610903613a5f565b0361091c5761091184611a20565b610120840152610945565b600a81600a81111561093057610930613a5f565b036109455761093e84611a3f565b6101408401525b5060010161072d565b509150505b92915050565b6000610963611167565b506000908152603560205260409020546001600160a01b031690565b610987611167565b61098f61137c565b60008281526035602090815260409182902080546001600160a01b0319166001600160a01b0385169081179091558251858152918201527f02c7aeb52f414fb9b4dfa6100f38185b5e12b184349218c18700bc39423bedc991016106f9565b6109f6611167565b610a008282611a4e565b6032546060820151516040516322292bed60e11b815260048101919091526001600160a01b039091169063445257da906024016104c5565b610a40611167565b610a4982611bb8565b610a538282611bc8565b5050565b6000610a61611c85565b50600080516020613e7f83398151915290565b610a7c61137c565b610a866000611cce565b565b6000610a92611167565b506033546001600160a01b031690565b3380610aac610b3e565b6001600160a01b031614610ae35760405163118cdaa760e01b81526001600160a01b03821660048201526024015b60405180910390fd5b610aec81611cce565b50565b6000610af9611167565b506032546001600160a01b031690565b6000807f9016d09d72d40fdae2fd8ceac6b6234c7706214fd39c1cd1e609a0528c1993005b546001600160a01b031692915050565b6000807f237e158222e3e6968b72b9db0d8043aacf074ad9f650f0d1606b4d82ee432c00610b2e565b6000610b71611167565b506000908152603460205260409020546001600160a01b031690565b7ff0c57e16840df040f15088dc2f81fe391c3923bec73e23a9662efc9c229c6a008054600160401b810460ff1615906001600160401b0316600081158015610bd25750825b90506000826001600160401b03166001148015610bee5750303b155b905081158015610bfc575080155b15610c1a5760405163f92ee8a960e01b815260040160405180910390fd5b845467ffffffffffffffff191660011785558315610c4457845460ff60401b1916600160401b1785555b610c4c611d06565b603280546001600160a01b03808e166001600160a01b03199283161790925560338054928d16929091169190911790558751895114610c9e5760405163899ef10d60e01b815260040160405180910390fd5b8551875114610cc05760405163899ef10d60e01b815260040160405180910390fd5b60005b8951811015610d3c57888181518110610cde57610cde613a20565b6020026020010151603460008c8481518110610cfc57610cfc613a20565b602090810291909101810151825281019190915260400160002080546001600160a01b0319166001600160a01b0392909216919091179055600101610cc3565b5060005b8751811015610db957868181518110610d5b57610d5b613a20565b6020026020010151603560008a8481518110610d7957610d79613a20565b602090810291909101810151825281019190915260400160002080546001600160a01b0319166001600160a01b0392909216919091179055600101610d40565b507f5a70813cf1b6cd11d1164e9788f7d124185bf692c3197538d52d6067953d318f8b8b8b8b8b8b604051610df396959493929190613aec565b60405180910390a18315610e4157845460ff60401b19168555604051600181527fc7f505b2f371ae2175ee4913f4499e1f2633a7b5936321eed1cdaeb6115181d29060200160405180910390a15b5050505050505050505050565b610e56611167565b610e5e61137c565b828114610e7e5760405163899ef10d60e01b815260040160405180910390fd5b60005b83811015610f8857828282818110610e9b57610e9b613a20565b9050602002016020810190610eb0919061316c565b60356000878785818110610ec657610ec6613a20565b90506020020135815260200190815260200160002060006101000a8154816001600160a01b0302191690836001600160a01b031602179055507f02c7aeb52f414fb9b4dfa6100f38185b5e12b184349218c18700bc39423bedc9858583818110610f3257610f32613a20565b90506020020135848484818110610f4b57610f4b613a20565b9050602002016020810190610f60919061316c565b604080519283526001600160a01b0390911660208301520160405180910390a1600101610e81565b5050505050565b610f9761137c565b7f237e158222e3e6968b72b9db0d8043aacf074ad9f650f0d1606b4d82ee432c0080546001600160a01b0319166001600160a01b0383169081178255610fdb610b09565b6001600160a01b03167f38d16b8cac22d99fc7c124b9cd0de2d3fa1faef420bfe791d8c362d765e2270060405160405180910390a35050565b61101c611167565b61102461137c565b8281146110445760405163899ef10d60e01b815260040160405180910390fd5b60005b83811015610f885782828281811061106157611061613a20565b9050602002016020810190611076919061316c565b6034600087878581811061108c5761108c613a20565b90506020020135815260200190815260200160002060006101000a8154816001600160a01b0302191690836001600160a01b031602179055507f2bdbcbf49383457c270bf05734cc8d74acb8a5788f0dc6384a715680f6a4dbcf8585838181106110f8576110f8613a20565b9050602002013584848481811061111157611111613a20565b9050602002016020810190611126919061316c565b604080519283526001600160a01b0390911660208301520160405180910390a1600101611047565b611156612ed8565b61115e611167565b61095382611d1f565b306001600160a01b037f00000000000000000000000000000000000000000000000000000000000000001614806111ee57507f00000000000000000000000000000000000000000000000000000000000000006001600160a01b03166111e2600080516020613e7f833981519152546001600160a01b031690565b6001600160a01b031614155b15610a865760405163703e46dd60e11b815260040160405180910390fd5b6000828152603460205260409020546001600160a01b031680611242576040516347393fa360e11b815260040160405180910390fd5b60325460608301516040908101519051639fc1e42360e01b815260048101919091526001600160a01b0390911690639fc1e42390602401602060405180830381865afa158015611296573d6000803e3d6000fd5b505050506040513d601f19601f820116820180604052508101906112ba9190613b5f565b6112d757604051635290660160e01b815260040160405180910390fd5b806001600160a01b03166311479fea83600001518460200151856040015186606001516040518563ffffffff1660e01b81526004016113199493929190613bd3565b602060405180830381865afa158015611336573d6000803e3d6000fd5b505050506040513d601f19601f8201168201806040525081019061135a9190613b5f565b61137757604051639003ac4d60e01b815260040160405180910390fd5b505050565b33611385610b09565b6001600160a01b031614610a865760405163118cdaa760e01b8152336004820152602401610ada565b60325460a08201516060015160c00151604051631fa0bd9b60e31b815260048101919091526000916001600160a01b03169063fd05ecd890602401602060405180830381865afa158015611406573d6000803e3d6000fd5b505050506040513d601f19601f8201168201806040525081019061142a9190613b5f565b61144757604051635290660160e01b815260040160405180910390fd5b61144f612f00565b60005b60068110156114a35760a08401516060015161146f826007613a4c565b6012811061147f5761147f613a20565b602002015182826006811061149657611496613a20565b6020020152600101611452565b5060006114af82611de1565b9050620151806114bd611eba565b6114c79190613c30565b6114d2906001613a4c565b8110806114fe575060016114e4611eba565b6114f19062015180613a4c565b6114fb9190613c30565b81115b1561151c5760405163ed8cf9ff60e01b815260040160405180910390fd5b611524612f1e565b60005b60038110156115785760a086015160600151611544826000613a4c565b6012811061155457611554613a20565b602002015182826003811061156b5761156b613a20565b6020020152600101611527565b508451156115b35761159661158c826117cf565b8660200151611ed8565b6115b35760405163f0e539b960e01b815260040160405180910390fd5b608085015151806115c957506080850151602001515b806115d957506080850151604001515b156116d8576116046115ea826117cf565b608087015180516020820151604090920151909190611eed565b611621576040516371b125ed60e01b815260040160405180910390fd5b60325460a0860151606001516101a08101516101c08201516101e09092015160405163935fc12160e01b81526004810192909252602482019290925260448101919091526001600160a01b039091169063935fc12190606401602060405180830381865afa158015611697573d6000803e3d6000fd5b505050506040513d601f19601f820116820180604052508101906116bb9190613b5f565b6116d857604051630e71e9e560e11b815260040160405180910390fd5b8460400151156117155760a0850151606001516003602002015185606001511461171557604051632fc86c4760e21b815260040160405180910390fd5b60335460a0860151805160208201516040808401516060909401519051634483e72160e01b81526001600160a01b0390951694634483e7219461175e9493929091600401613c43565b602060405180830381865afa15801561177b573d6000803e3d6000fd5b505050506040513d601f19601f8201168201806040525081019061179f9190613b5f565b6117bc57604051636a69bd3d60e11b815260040160405180910390fd5b5050505060a001516060015160c0015190565b8051606090600080516020613e9f83398151915211158061180257506020820151600080516020613e9f83398151915211155b8061181f57506040820151600080516020613e9f83398151915211155b1561183d57604051633ae4ed6b60e01b815260040160405180910390fd5b60408051606081018252601f80825260208201819052818301528151605d808252608082019093529091600091906020820181803683370190505090506000805b600381101561191e57600086826003811061189b5761189b613a20565b6020020151905060005b8583600381106118b7576118b7613a20565b602002015160ff168160ff161015611914578160ff1660f81b8585806118dc90613c94565b9650815181106118ee576118ee613a20565b60200101906001600160f81b031916908160001a90535060089190911c906001016118a5565b505060010161187e565b5090949350505050565b60606109538260026004611f45565b6060610953611949836005602b611f45565b61203c565b606061095382602c6034611f45565b60606109538260366038611f45565b606061095361197e836039603e611f45565b612252565b606061095382604080611f45565b606061095361197e8360416046611f45565b60006119d2826119b560586001613a4c565b815181106119c5576119c5613a20565b016020015160f81c6124ad565b6119e8836058815181106119c5576119c5613a20565b6119f390600a613cad565b6109539190613a4c565b600081605a81518110611a1257611a12613a20565b016020015160f81c92915050565b600081611a2f605a6001613a4c565b81518110611a1257611a12613a20565b600081611a2f605a6002613a4c565b6000828152603560205260409020546001600160a01b031680611a84576040516347393fa360e11b815260040160405180910390fd5b603254606083015160200151604051631465ff7f60e01b815260048101919091526001600160a01b0390911690631465ff7f90602401602060405180830381865afa158015611ad7573d6000803e3d6000fd5b505050506040513d601f19601f82011682018060405250810190611afb9190613b5f565b611b18576040516328a52b4f60e21b815260040160405180910390fd5b806001600160a01b031663f5c9d69e83600001518460200151856040015186606001516040518563ffffffff1660e01b8152600401611b5a9493929190613cc4565b602060405180830381865afa158015611b77573d6000803e3d6000fd5b505050506040513d601f19601f82011682018060405250810190611b9b9190613b5f565b611377576040516335436ebb60e11b815260040160405180910390fd5b611bc0611167565b610aec61137c565b816001600160a01b03166352d1902d6040518163ffffffff1660e01b8152600401602060405180830381865afa925050508015611c22575060408051601f3d908101601f19168201909252611c1f91810190613cfb565b60015b611c4a57604051634c9c8ce360e01b81526001600160a01b0383166004820152602401610ada565b600080516020613e7f8339815191528114611c7b57604051632a87526960e21b815260048101829052602401610ada565b61137783836124e7565b306001600160a01b037f00000000000000000000000000000000000000000000000000000000000000001614610a865760405163703e46dd60e11b815260040160405180910390fd5b7f237e158222e3e6968b72b9db0d8043aacf074ad9f650f0d1606b4d82ee432c0080546001600160a01b0319168155610a538261253d565b611d0e6125ae565b611d17336125f7565b610a86612608565b611d27612ed8565b600080516020613e9f8339815191528210611d5557604051633ae4ed6b60e01b815260040160405180910390fd5b60005b600a811015611ddb576000611d6e826003613cad565b90506000611d7d826008613cad565b60405186821c60e881901b6001600160e81b031916602083015291925062ffffff918216906023016040516020818303038152906040528686600a8110611dc657611dc6613a20565b6020020152505060019092019150611d589050565b50919050565b6000805b6006811015611e2e576009838260068110611e0257611e02613a20565b60200201511115611e26576040516305ebe05560e21b815260040160405180910390fd5b600101611de5565b50604080516020810190915260008082525b6006811015611ea65781600a858360068110611e5e57611e5e613a20565b6020020151611e6d9190613d14565b611e78906030613a4c565b60f81b604051602001611e8c929190613d36565b60408051601f198184030181529190529150600101611e40565b506000611eb282612610565b949350505050565b6000611ec96201518042613d14565b611ed39042613c30565b905090565b600081611ee4846119a3565b10159392505050565b6000831580611f045750611f00856119fd565b6001145b8015611f205750821580611f205750611f1c85611a20565b6001145b8015611f3c5750811580611f3c5750611f3885611a3f565b6001145b95945050505050565b606081845111611f685760405163fe9a439f60e01b815260040160405180910390fd5b6000611f748484613c30565b611f7f906001613a4c565b6001600160401b03811115611f9657611f96612f5b565b6040519080825280601f01601f191660200182016040528015611fc0576020820181803683370190505b509050835b83811161203157858181518110611fde57611fde613a20565b01602001516001600160f81b03191682611ff88784613c30565b8151811061200857612008613a20565b60200101906001600160f81b031916908160001a9053508061202981613c94565b915050611fc5565b5090505b9392505050565b6040805160028082526060828101909352839183918291600091816020015b606081526020019060019003908161205b57905050905060005b8451811080156120aa575084818151811061209257612092613a20565b6020910101516001600160f81b031916600f60fa1b14155b1561210257828582815181106120c2576120c2613a20565b602001015160f81c60f81b6040516020016120de929190613d36565b604051602081830303815290604052925080806120fa90613c94565b915050612075565b61210d600282613a4c565b90505b845181101561220a5784818151811061212b5761212b613a20565b01602001516001600160f81b031916600f60fa1b036121b7578451612151826001613a4c565b10801561218c575084612165826001613a4c565b8151811061217557612175613a20565b6020910101516001600160f81b031916600f60fa1b145b61220a57836040516020016121a19190613d65565b60405160208183030381529060405293506121f8565b838582815181106121ca576121ca613a20565b602001015160f81c60f81b6040516020016121e6929190613d36565b60405160208183030381529060405293505b8061220281613c94565b915050612110565b838260008151811061221e5761221e613a20565b6020026020010181905250828260018151811061223d5761223d613a20565b60209081029190910101525095945050505050565b805160609082906006146122795760405163b337595360e01b815260040160405180910390fd5b603160f81b8160028151811061229157612291613a20565b01602001516001600160f81b03191611806123005750806002815181106122ba576122ba613a20565b6020910101516001600160f81b031916603160f81b1480156123005750601960f91b816003815181106122ef576122ef613a20565b01602001516001600160f81b031916115b1561231e576040516304bcc4f160e31b815260040160405180910390fd5b603360f81b8160048151811061233657612336613a20565b01602001516001600160f81b03191611806123a557508060048151811061235f5761235f613a20565b6020910101516001600160f81b031916603360f81b1480156123a55750603160f81b8160058151811061239457612394613a20565b01602001516001600160f81b031916115b156123c357604051638930acef60e01b815260040160405180910390fd5b60005b600681101561244a57600360fc1b8282815181106123e6576123e6613a20565b01602001516001600160f81b03191610806124245750603960f81b82828151811061241357612413613a20565b01602001516001600160f81b031916115b15612442576040516378f5f64b60e11b815260040160405180910390fd5b6001016123c6565b50600061245a846000600261286b565b9050600061246b856002600461286b565b9050600061247c866004600661286b565b905080828460405160200161249393929190613d8a565b604051602081830303815290604052945050505050919050565b600060308210806124be5750603982115b156124dc576040516378f5f64b60e11b815260040160405180910390fd5b610953603083613c30565b6124f08261292d565b6040516001600160a01b038316907fbc7cd75a20ee27fd9adebab32041f755214dbc6bffa90cc0225b39da2e5c2d3b90600090a2805115612535576113778282612992565b610a536129ff565b7f9016d09d72d40fdae2fd8ceac6b6234c7706214fd39c1cd1e609a0528c19930080546001600160a01b031981166001600160a01b03848116918217845560405192169182907f8be0079c531659141344cd1fd0a4f28419497f9722a3daafe3b4186f6b6457e090600090a3505050565b7ff0c57e16840df040f15088dc2f81fe391c3923bec73e23a9662efc9c229c6a0054600160401b900460ff16610a8657604051631afcd79f60e31b815260040160405180910390fd5b6125ff6125ae565b610aec81612a1e565b610a866125ae565b805160009082906006146126375760405163b337595360e01b815260040160405180910390fd5b603160f81b8160028151811061264f5761264f613a20565b01602001516001600160f81b03191611806126be57508060028151811061267857612678613a20565b6020910101516001600160f81b031916603160f81b1480156126be5750601960f91b816003815181106126ad576126ad613a20565b01602001516001600160f81b031916115b156126dc576040516304bcc4f160e31b815260040160405180910390fd5b603360f81b816004815181106126f4576126f4613a20565b01602001516001600160f81b031916118061276357508060048151811061271d5761271d613a20565b6020910101516001600160f81b031916603360f81b1480156127635750603160f81b8160058151811061275257612752613a20565b01602001516001600160f81b031916115b1561278157604051638930acef60e01b815260040160405180910390fd5b60005b600681101561280857600360fc1b8282815181106127a4576127a4613a20565b01602001516001600160f81b03191610806127e25750603960f81b8282815181106127d1576127d1613a20565b01602001516001600160f81b031916115b15612800576040516378f5f64b60e11b815260040160405180910390fd5b600101612784565b50600061282061281b856000600261286b565b612a50565b61282c906107d0613a4c565b9050600061284061281b866002600461286b565b9050600061285461281b876004600661286b565b9050612861838383612b28565b9695505050505050565b606083600061287a8585613c30565b6001600160401b0381111561289157612891612f5b565b6040519080825280601f01601f1916602001820160405280156128bb576020820181803683370190505b509050845b84811015612923578281815181106128da576128da613a20565b01602001516001600160f81b031916826128f48884613c30565b8151811061290457612904613a20565b60200101906001600160f81b031916908160001a9053506001016128c0565b5095945050505050565b806001600160a01b03163b60000361296357604051634c9c8ce360e01b81526001600160a01b0382166004820152602401610ada565b600080516020613e7f83398151915280546001600160a01b0319166001600160a01b0392909216919091179055565b6060600080846001600160a01b0316846040516129af9190613de9565b600060405180830381855af49150503d80600081146129ea576040519150601f19603f3d011682016040523d82523d6000602084013e6129ef565b606091505b5091509150611f3c858383612d34565b3415610a865760405163b398979f60e01b815260040160405180910390fd5b612a266125ae565b6001600160a01b038116610ae357604051631e4fbdf760e01b815260006004820152602401610ada565b805160009082908203612a665750600092915050565b60008060005b8351811015612b1f576030848281518110612a8957612a89613a20565b016020015160f81c1080612ab657506039848281518110612aac57612aac613a20565b016020015160f81c115b15612ad4576040516378f5f64b60e11b815260040160405180910390fd5b6030848281518110612ae857612ae8613a20565b0160200151612afa919060f81c613e05565b60ff16925082612b0b83600a613cad565b612b159190613a4c565b9150600101612a6c565b50949350505050565b6000806107b2851080612b3c575061083485115b15612b5a576040516305bd032560e21b815260040160405180910390fd5b6001841080612b695750600c84115b15612b87576040516304bcc4f160e31b815260040160405180910390fd5b506107b25b848161ffff161015612be257612ba58161ffff16612d90565b15612bbf57612bb86301e2850083613a4c565b9150612bd0565b612bcd6301e1338083613a4c565b91505b80612bda81613e1e565b915050612b8c565b612bea612f3c565b601f8152612bf786612d90565b15612c0857601d6020820152612c10565b601c60208201525b601f60408201819052601e606083018190526080830182905260a0830181905260c0830182905260e08301829052610100830181905261012083018290526101408301526101608201526001841080612c8b575080612c70600187613c30565b600c8110612c8057612c80613a20565b602002015160ff1684115b15612ca957604051638930acef60e01b815260040160405180910390fd5b600191505b848261ffff161015612d125780612cc6600184613e3f565b61ffff16600c8110612cda57612cda613a20565b6020020151612cef9060ff1662015180613e59565b612cfe9062ffffff1684613a4c565b925081612d0a81613e1e565b925050612cae565b612d1d600185613c30565b612d2a9062015180613cad565b6128619084613a4c565b606082612d4957612d4482612e12565b612035565b8151158015612d6057506001600160a01b0384163b155b15612d8957604051639996b31560e01b81526001600160a01b0385166004820152602401610ada565b5080612035565b60006107b2821080612da3575061083482115b15612dc1576040516305bd032560e21b815260040160405180910390fd5b612dcc600483613d14565b15612dd957506000919050565b612de4606483613d14565b15612df157506001919050565b612dfd61019083613d14565b15612e0a57506000919050565b506001919050565b805115612e225780518082602001fd5b60405163d6bda27560e01b815260040160405180910390fd5b6040518060e001604052806000815260200160008152602001600081526020016000815260200160008152602001612e71612f1e565b8152602001600081525090565b60405180610160016040528060608152602001606081526020016060815260200160608152602001606081526020016060815260200160608152602001600081526020016000815260200160008152602001600081525090565b604051806101400160405280600a905b6060815260200190600190039081612ee85790505090565b6040518060c001604052806006906020820280368337509192915050565b60405180606001604052806003906020820280368337509192915050565b604051806101800160405280600c906020820280368337509192915050565b634e487b7160e01b600052604160045260246000fd5b604051608081016001600160401b0381118282101715612f9357612f93612f5b565b60405290565b60405160c081016001600160401b0381118282101715612f9357612f93612f5b565b604051601f8201601f191681016001600160401b0381118282101715612fe357612fe3612f5b565b604052919050565b600082601f830112612ffc57600080fd5b60006130086040612fbb565b905080604084018581111561301c57600080fd5b845b8181101561303657803583526020928301920161301e565b509195945050505050565b600082601f83011261305257600080fd5b604061305d81612fbb565b80608085018681111561306f57600080fd5b855b81811015613092576130838882612feb565b84526020909301928401613071565b50909695505050505050565b600082601f8301126130af57600080fd5b60006130bb6060612fbb565b905080606084018581111561301c57600080fd5b6000808284036101808112156130e457600080fd5b83359250610160601f19820112156130fb57600080fd5b50613104612f71565b6131118560208601612feb565b81526131208560608601613041565b60208201526131328560e08601612feb565b604082015261314585610120860161309e565b6060820152809150509250929050565b80356001600160a01b038116811461062b57600080fd5b60006020828403121561317e57600080fd5b61203582613155565b8015158114610aec57600080fd5b600061034082840312156131a857600080fd5b6131b0612f71565b90506131bc8383612feb565b81526131cb8360408401613041565b60208201526131dd8360c08401612feb565b604082015260008361011f8401126131f3578081fd5b8061024061320081612fbb565b91505080915061034084018581111561321857600080fd5b61010085015b8181101561323657803584526020938401930161321e565b505060608301525092915050565b600061042082840312801561325857600080fd5b506000613263612f99565b833561326e81613187565b815260208481013590820152604084013561328881613187565b604082015260608481013590820152609f840185136132a5578182fd5b6132af6060612fbb565b8060e08601878111156132c0578485fd5b6080870194505b808510156132eb5784356132da81613187565b8352602094850194909201916132c7565b8160808501526132fb8882613195565b60a085015250919695505050505050565b600061012082019050825182526020830151602083015260408301516040830152606083015160608301526080830151608083015260a083015160a0830160005b600381101561336c57825182526020928301929091019060010161334d565b50505060c083015161010083015292915050565b6000806040838503121561339357600080fd5b823591506133a360208401613155565b90509250929050565b60006001600160401b038211156133c5576133c5612f5b565b5060051b60200190565b600080608083850312156133e257600080fd5b6133ec848461309e565b915060608301356001600160401b0381111561340757600080fd5b8301601f8101851361341857600080fd5b803561342b613426826133ac565b612fbb565b8082825260208201915060208360051b85010192508783111561344d57600080fd5b6020840193505b8284101561347c578335600b811061346b57600080fd5b825260209384019390910190613454565b809450505050509250929050565b60005b838110156134a557818101518382015260200161348d565b50506000910152565b600081518084526134c681602086016020860161348a565b601f01601f19169290920160200192915050565b600082825180855260208501945060208160051b8301016020850160005b8381101561309257601f198584030188526135148383516134ae565b60209889019890935091909101906001016134f8565b602081526000825161016060208401526135486101808401826134ae565b90506020840151601f1984830301604085015261356582826134da565b9150506040840151601f1984830301606085015261358382826134ae565b9150506060840151601f198483030160808501526135a182826134ae565b9150506080840151601f198483030160a08501526135bf82826134ae565b91505060a0840151601f198483030160c08501526135dd82826134ae565b91505060c0840151601f198483030160e08501526135fb82826134ae565b91505060e08401516101008401526101008401516101208401526101208401516101408401526101408401516101608401528091505092915050565b60006020828403121561364957600080fd5b5035919050565b60008082840361016081121561366557600080fd5b83359250610140601f198201121561367c57600080fd5b50613685612f71565b6136928560208601612feb565b81526136a18560608601613041565b60208201526136b38560e08601612feb565b6040820152613145856101208601612feb565b600080604083850312156136d957600080fd5b6136e283613155565b915060208301356001600160401b038111156136fd57600080fd5b8301601f8101851361370e57600080fd5b80356001600160401b0381111561372757613727612f5b565b61373a601f8201601f1916602001612fbb565b81815286602083850101111561374f57600080fd5b816020840160208301376000602083830101528093505050509250929050565b60208152600061203560208301846134ae565b600082601f83011261379357600080fd5b81356137a1613426826133ac565b8082825260208201915060208360051b8601019250858311156137c357600080fd5b602085015b838110156129235780358352602092830192016137c8565b600082601f8301126137f157600080fd5b81356137ff613426826133ac565b8082825260208201915060208360051b86010192508583111561382157600080fd5b602085015b838110156129235761383781613155565b835260209283019201613826565b60008060008060008060c0878903121561385e57600080fd5b61386787613155565b955061387560208801613155565b945060408701356001600160401b0381111561389057600080fd5b61389c89828a01613782565b94505060608701356001600160401b038111156138b857600080fd5b6138c489828a016137e0565b93505060808701356001600160401b038111156138e057600080fd5b6138ec89828a01613782565b92505060a08701356001600160401b0381111561390857600080fd5b61391489828a016137e0565b9150509295509295509295565b60008083601f84011261393357600080fd5b5081356001600160401b0381111561394a57600080fd5b6020830191508360208260051b850101111561396557600080fd5b9250929050565b6000806000806040858703121561398257600080fd5b84356001600160401b0381111561399857600080fd5b6139a487828801613921565b90955093505060208501356001600160401b038111156139c357600080fd5b6139cf87828801613921565b95989497509550505050565b6020808252600090610160830190830184835b600a81101561303657601f19868503018352613a0b8483516134ae565b935060209283019291909101906001016139ee565b634e487b7160e01b600052603260045260246000fd5b634e487b7160e01b600052601160045260246000fd5b8082018082111561095357610953613a36565b634e487b7160e01b600052602160045260246000fd5b600081518084526020840193506020830160005b82811015613aa7578151865260209586019590910190600101613a89565b5093949350505050565b600081518084526020840193506020830160005b82811015613aa75781516001600160a01b0316865260209586019590910190600101613ac5565b6001600160a01b0387811682528616602082015260c060408201819052600090613b1890830187613a75565b8281036060840152613b2a8187613ab1565b90508281036080840152613b3e8186613a75565b905082810360a0840152613b528185613ab1565b9998505050505050505050565b600060208284031215613b7157600080fd5b815161203581613187565b8060005b6002811015613b9f578151845260209384019390910190600101613b80565b50505050565b8060005b6002811015613b9f57613bbd848351613b7c565b6040939093019260209190910190600101613ba9565b6101608101613be28287613b7c565b613bef6040830186613ba5565b613bfc60c0830185613b7c565b61010082018360005b6003811015613c24578151835260209283019290910190600101613c05565b50505095945050505050565b8181038181111561095357610953613a36565b6103408101613c528287613b7c565b613c5f6040830186613ba5565b613c6c60c0830185613b7c565b61010082018360005b6012811015613c24578151835260209283019290910190600101613c75565b600060018201613ca657613ca6613a36565b5060010190565b808202811582820484141761095357610953613a36565b6101408101613cd38287613b7c565b613ce06040830186613ba5565b613ced60c0830185613b7c565b611f3c610100830184613b7c565b600060208284031215613d0d57600080fd5b5051919050565b600082613d3157634e487b7160e01b600052601260045260246000fd5b500690565b60008351613d4881846020880161348a565b6001600160f81b0319939093169190920190815260010192915050565b60008251613d7781846020870161348a565b600160fd1b920191825250600101919050565b60008451613d9c81846020890161348a565b602d60f81b9083019081528451613dba81600184016020890161348a565b602d60f81b600192909101918201528351613ddc81600284016020880161348a565b0160020195945050505050565b60008251613dfb81846020870161348a565b9190910192915050565b60ff828116828216039081111561095357610953613a36565b600061ffff821661ffff8103613e3657613e36613a36565b60010192915050565b61ffff828116828216039081111561095357610953613a36565b62ffffff8181168382160290811690818114613e7757613e77613a36565b509291505056fe360894a13ba1a3210667c828492db98dca3e2076cc3735a920a3ca505d382bbc30644e72e131a029b85045b68181585d2833e84879b9709143e1f593f0000001a164736f6c634300081c000a",
  "linkReferences": {},
  "deployedLinkReferences": {}
}